{
  "contractName": "Tokoin",
  "abi": [
    {
      "inputs": [],
      "payable": false,
      "stateMutability": "nonpayable",
      "type": "constructor"
    },
    {
      "anonymous": false,
      "inputs": [
        {
          "indexed": true,
          "name": "_owner",
          "type": "address"
        },
        {
          "indexed": false,
          "name": "_tokenId",
          "type": "uint256"
        }
      ],
      "name": "tokoin",
      "type": "event"
    },
    {
      "anonymous": false,
      "inputs": [
        {
          "indexed": true,
          "name": "_from",
          "type": "address"
        },
        {
          "indexed": true,
          "name": "_to",
          "type": "address"
        },
        {
          "indexed": false,
          "name": "_tokenId",
          "type": "uint256"
        }
      ],
      "name": "Transfer",
      "type": "event"
    },
    {
      "anonymous": false,
      "inputs": [
        {
          "indexed": true,
          "name": "_owner",
          "type": "address"
        },
        {
          "indexed": true,
          "name": "_approved",
          "type": "address"
        },
        {
          "indexed": false,
          "name": "_tokenId",
          "type": "uint256"
        }
      ],
      "name": "Approval",
      "type": "event"
    },
    {
      "anonymous": false,
      "inputs": [
        {
          "indexed": true,
          "name": "_owner",
          "type": "address"
        },
        {
          "indexed": false,
          "name": "_tokenId",
          "type": "uint256"
        }
      ],
      "name": "tokoinRedeem",
      "type": "event"
    },
    {
      "anonymous": false,
      "inputs": [
        {
          "indexed": false,
          "name": "",
          "type": "string"
        },
        {
          "indexed": false,
          "name": "",
          "type": "address"
        }
      ],
      "name": "LogAddress",
      "type": "event"
    },
    {
      "constant": true,
      "inputs": [],
      "name": "get",
      "outputs": [
        {
          "name": "retVal",
          "type": "address"
        }
      ],
      "payable": false,
      "stateMutability": "view",
      "type": "function"
    },
    {
      "constant": false,
      "inputs": [
        {
          "name": "to",
          "type": "address"
        },
        {
          "name": "_itemId",
          "type": "uint256"
        },
        {
          "name": "_redeemTimes",
          "type": "uint256"
        },
        {
          "name": "_dateToDelivery",
          "type": "uint256"
        },
        {
          "name": "_DeliveryTimeInterval",
          "type": "uint256"
        },
        {
          "name": "_client",
          "type": "address"
        },
        {
          "name": "_owner",
          "type": "address"
        }
      ],
      "name": "_mint",
      "outputs": [
        {
          "components": [
            {
              "name": "_itemId",
              "type": "uint256"
            },
            {
              "name": "_redeemTimes",
              "type": "uint256"
            },
            {
              "name": "_currentTime",
              "type": "uint256"
            },
            {
              "name": "_dateToDelivery",
              "type": "uint256"
            },
            {
              "name": "_DeliveryTimeInterval",
              "type": "uint256"
            },
            {
              "name": "_client",
              "type": "address"
            },
            {
              "name": "_owner",
              "type": "address"
            },
            {
              "name": "_tokenId",
              "type": "uint256"
            }
          ],
          "name": "",
          "type": "tuple"
        }
      ],
      "payable": false,
      "stateMutability": "nonpayable",
      "type": "function"
    },
    {
      "constant": true,
      "inputs": [
        {
          "name": "_owner",
          "type": "address"
        }
      ],
      "name": "balanceOf",
      "outputs": [
        {
          "name": "",
          "type": "uint256"
        }
      ],
      "payable": false,
      "stateMutability": "view",
      "type": "function"
    },
    {
      "constant": true,
      "inputs": [
        {
          "name": "_tokenId",
          "type": "uint256"
        }
      ],
      "name": "ownerOf",
      "outputs": [
        {
          "name": "",
          "type": "address"
        }
      ],
      "payable": false,
      "stateMutability": "view",
      "type": "function"
    },
    {
      "constant": true,
      "inputs": [
        {
          "name": "owner",
          "type": "address"
        },
        {
          "name": "operator",
          "type": "address"
        }
      ],
      "name": "isApprovedForAll",
      "outputs": [
        {
          "name": "",
          "type": "bool"
        }
      ],
      "payable": false,
      "stateMutability": "view",
      "type": "function"
    },
    {
      "constant": false,
      "inputs": [
        {
          "name": "to",
          "type": "address"
        },
        {
          "name": "tokenId",
          "type": "uint256"
        }
      ],
      "name": "approve",
      "outputs": [],
      "payable": false,
      "stateMutability": "nonpayable",
      "type": "function"
    },
    {
      "constant": true,
      "inputs": [
        {
          "name": "tokenId",
          "type": "uint256"
        }
      ],
      "name": "getApproved",
      "outputs": [
        {
          "name": "",
          "type": "address"
        }
      ],
      "payable": false,
      "stateMutability": "view",
      "type": "function"
    },
    {
      "constant": false,
      "inputs": [
        {
          "name": "from",
          "type": "address"
        },
        {
          "name": "to",
          "type": "address"
        },
        {
          "name": "tokenId",
          "type": "uint256"
        }
      ],
      "name": "transferFrom",
      "outputs": [],
      "payable": false,
      "stateMutability": "nonpayable",
      "type": "function"
    },
    {
      "constant": false,
      "inputs": [],
      "name": "destroyContract",
      "outputs": [],
      "payable": false,
      "stateMutability": "nonpayable",
      "type": "function"
    }
  ],
  "bytecode": "0x608060405234801561001057600080fd5b50336000806101000a81548173ffffffffffffffffffffffffffffffffffffffff021916908373ffffffffffffffffffffffffffffffffffffffff16021790555061193a806100606000396000f3fe608060405234801561001057600080fd5b50600436106100935760003560e01c80636352211e116100665780636352211e1461010a5780636d4ce63c1461013a57806370a0823114610158578063ce34fba414610188578063e985e9c5146101b857610093565b8063081812fc14610098578063092a5cce146100c8578063095ea7b3146100d257806323b872dd146100ee575b600080fd5b6100b260048036036100ad9190810190611042565b6101e8565b6040516100bf91906115f3565b60405180910390f35b6100d061026d565b005b6100ec60048036036100e79190810190610f68565b6102ff565b005b61010860048036036101039190810190610f19565b6104b6565b005b610124600480360361011f9190810190611042565b61050f565b60405161013191906115f3565b60405180910390f35b6101426105c1565b60405161014f91906115f3565b60405180910390f35b610172600480360361016d9190810190610eb4565b6105ea565b60405161017f91906117d5565b60405180910390f35b6101a2600480360361019d9190810190610fa4565b6106a2565b6040516101af91906117b9565b60405180910390f35b6101d260048036036101cd9190810190610edd565b6108f0565b6040516101df919061160e565b60405180910390f35b60006101f382610984565b610232576040517f08c379a000000000000000000000000000000000000000000000000000000000815260040161022990611699565b60405180910390fd5b6002600083815260200190815260200160002060009054906101000a900473ffffffffffffffffffffffffffffffffffffffff169050919050565b3373ffffffffffffffffffffffffffffffffffffffff166000809054906101000a900473ffffffffffffffffffffffffffffffffffffffff1673ffffffffffffffffffffffffffffffffffffffff1614156102db573373ffffffffffffffffffffffffffffffffffffffff16ff5b6102fd6040518060600160405280603a81526020016118c7603a9139336109f6565b565b600061030a8261050f565b90508073ffffffffffffffffffffffffffffffffffffffff168373ffffffffffffffffffffffffffffffffffffffff16141561037b576040517f08c379a000000000000000000000000000000000000000000000000000000000815260040161037290611659565b60405180910390fd5b8073ffffffffffffffffffffffffffffffffffffffff163373ffffffffffffffffffffffffffffffffffffffff1614806103bb57506103ba81336108f0565b5b6103fa576040517f08c379a00000000000000000000000000000000000000000000000000000000081526004016103f1906116d9565b60405180910390fd5b826002600084815260200190815260200160002060006101000a81548173ffffffffffffffffffffffffffffffffffffffff021916908373ffffffffffffffffffffffffffffffffffffffff1602179055508273ffffffffffffffffffffffffffffffffffffffff168173ffffffffffffffffffffffffffffffffffffffff167f8c5be1e5ebec7d5bd14f71427d1e84f3dd0314c0f7b2291e5b200ac8c7c3b925846040516104a991906117d5565b60405180910390a3505050565b6104c03382610a33565b6104ff576040517f08c379a00000000000000000000000000000000000000000000000000000000081526004016104f690611799565b60405180910390fd5b61050a838383610b11565b505050565b6000806001600084815260200190815260200160002060009054906101000a900473ffffffffffffffffffffffffffffffffffffffff169050600073ffffffffffffffffffffffffffffffffffffffff168173ffffffffffffffffffffffffffffffffffffffff1614156105b8576040517f08c379a00000000000000000000000000000000000000000000000000000000081526004016105af90611679565b60405180910390fd5b80915050919050565b60008060009054906101000a900473ffffffffffffffffffffffffffffffffffffffff16905090565b60008073ffffffffffffffffffffffffffffffffffffffff168273ffffffffffffffffffffffffffffffffffffffff16141561065b576040517f08c379a000000000000000000000000000000000000000000000000000000000815260040161065290611739565b60405180910390fd5b600460008373ffffffffffffffffffffffffffffffffffffffff1673ffffffffffffffffffffffffffffffffffffffff168152602001908152602001600020549050919050565b6106aa610e19565b6000600190506106b8610e19565b6040518061010001604052808a81526020018981526020014281526020018881526020018781526020018673ffffffffffffffffffffffffffffffffffffffff1681526020018573ffffffffffffffffffffffffffffffffffffffff168152602001838152509050600073ffffffffffffffffffffffffffffffffffffffff168a73ffffffffffffffffffffffffffffffffffffffff161415610790576040517f08c379a0000000000000000000000000000000000000000000000000000000008152600401610787906116f9565b60405180910390fd5b61079982610984565b156107d9576040517f08c379a00000000000000000000000000000000000000000000000000000000081526004016107d090611779565b60405180910390fd5b896001600084815260200190815260200160002060006101000a81548173ffffffffffffffffffffffffffffffffffffffff021916908373ffffffffffffffffffffffffffffffffffffffff160217905550600460008b73ffffffffffffffffffffffffffffffffffffffff1673ffffffffffffffffffffffffffffffffffffffff168152602001908152602001600020600081548092919060010191905055508973ffffffffffffffffffffffffffffffffffffffff16600073ffffffffffffffffffffffffffffffffffffffff167fddf252ad1be2c89b69c2b068fc378daa952ba7f163c4a11628f55a4df523b3ef846040516108d891906117d5565b60405180910390a38092505050979650505050505050565b6000600560008473ffffffffffffffffffffffffffffffffffffffff1673ffffffffffffffffffffffffffffffffffffffff16815260200190815260200160002060008373ffffffffffffffffffffffffffffffffffffffff1673ffffffffffffffffffffffffffffffffffffffff16815260200190815260200160002060009054906101000a900460ff16905092915050565b6000806001600084815260200190815260200160002060009054906101000a900473ffffffffffffffffffffffffffffffffffffffff169050600073ffffffffffffffffffffffffffffffffffffffff168173ffffffffffffffffffffffffffffffffffffffff161415915050919050565b7f62ddffe5b5108385f7a590f100e1ee414ad9551a31f089e64e82998440785e1e8282604051610a27929190611629565b60405180910390a15050565b6000610a3e82610984565b610a7d576040517f08c379a0000000000000000000000000000000000000000000000000000000008152600401610a74906116b9565b60405180910390fd5b6000610a888361050f565b90508073ffffffffffffffffffffffffffffffffffffffff168473ffffffffffffffffffffffffffffffffffffffff161480610af757508373ffffffffffffffffffffffffffffffffffffffff16610adf846101e8565b73ffffffffffffffffffffffffffffffffffffffff16145b80610b085750610b0781856108f0565b5b91505092915050565b8273ffffffffffffffffffffffffffffffffffffffff16610b318261050f565b73ffffffffffffffffffffffffffffffffffffffff1614610b87576040517f08c379a0000000000000000000000000000000000000000000000000000000008152600401610b7e90611759565b60405180910390fd5b600073ffffffffffffffffffffffffffffffffffffffff168273ffffffffffffffffffffffffffffffffffffffff161415610bf7576040517f08c379a0000000000000000000000000000000000000000000000000000000008152600401610bee90611719565b60405180910390fd5b610c0081610d5b565b600460008473ffffffffffffffffffffffffffffffffffffffff1673ffffffffffffffffffffffffffffffffffffffff1681526020019081526020016000206000815480929190600190039190505550600460008373ffffffffffffffffffffffffffffffffffffffff1673ffffffffffffffffffffffffffffffffffffffff16815260200190815260200160002060008154809291906001019190505550816001600083815260200190815260200160002060006101000a81548173ffffffffffffffffffffffffffffffffffffffff021916908373ffffffffffffffffffffffffffffffffffffffff1602179055508173ffffffffffffffffffffffffffffffffffffffff168373ffffffffffffffffffffffffffffffffffffffff167fddf252ad1be2c89b69c2b068fc378daa952ba7f163c4a11628f55a4df523b3ef83604051610d4e91906117d5565b60405180910390a3505050565b600073ffffffffffffffffffffffffffffffffffffffff166002600083815260200190815260200160002060009054906101000a900473ffffffffffffffffffffffffffffffffffffffff1673ffffffffffffffffffffffffffffffffffffffff1614610e165760006002600083815260200190815260200160002060006101000a81548173ffffffffffffffffffffffffffffffffffffffff021916908373ffffffffffffffffffffffffffffffffffffffff1602179055505b50565b6040518061010001604052806000815260200160008152602001600081526020016000815260200160008152602001600073ffffffffffffffffffffffffffffffffffffffff168152602001600073ffffffffffffffffffffffffffffffffffffffff168152602001600081525090565b600081359050610e9981611898565b92915050565b600081359050610eae816118af565b92915050565b600060208284031215610ec657600080fd5b6000610ed484828501610e8a565b91505092915050565b60008060408385031215610ef057600080fd5b6000610efe85828601610e8a565b9250506020610f0f85828601610e8a565b9150509250929050565b600080600060608486031215610f2e57600080fd5b6000610f3c86828701610e8a565b9350506020610f4d86828701610e8a565b9250506040610f5e86828701610e9f565b9150509250925092565b60008060408385031215610f7b57600080fd5b6000610f8985828601610e8a565b9250506020610f9a85828601610e9f565b9150509250929050565b600080600080600080600060e0888a031215610fbf57600080fd5b6000610fcd8a828b01610e8a565b9750506020610fde8a828b01610e9f565b9650506040610fef8a828b01610e9f565b95505060606110008a828b01610e9f565b94505060806110118a828b01610e9f565b93505060a06110228a828b01610e8a565b92505060c06110338a828b01610e8a565b91505092959891949750929550565b60006020828403121561105457600080fd5b600061106284828501610e9f565b91505092915050565b6110748161180c565b82525050565b6110838161180c565b82525050565b6110928161181e565b82525050565b60006110a3826117f0565b6110ad81856117fb565b93506110bd818560208601611854565b6110c681611887565b840191505092915050565b60006110de6027836117fb565b91507f546f6b6f696e5e302e312e303a20617070726f76616c20746f2063757272656e60008301527f74206f776e6572000000000000000000000000000000000000000000000000006020830152604082019050919050565b6000611144602f836117fb565b91507f546f6b6f696e5e302e312e303a206f776e657220717565727920666f72206e6f60008301527f6e6578697374656e7420746f6b656e00000000000000000000000000000000006020830152604082019050919050565b60006111aa6032836117fb565b91507f546f6b6f696e5e302e312e303a20617070726f76656420717565727920666f7260008301527f206e6f6e6578697374656e7420746f6b656e00000000000000000000000000006020830152604082019050919050565b60006112106033836117fb565b91507f546f6b6f696e5e302e312e303a206f70657261746f7220717565727920666f7260008301527f206e6f6e6578697374656e7420746f6b6f696e000000000000000000000000006020830152604082019050919050565b6000611276603e836117fb565b91507f546f6b6f696e5e302e312e303a20617070726f76652063616c6c65722069732060008301527f6e6f74206f776e6572206e6f7220617070726f76656420666f7220616c6c00006020830152604082019050919050565b60006112dc6026836117fb565b91507f546f6b6f696e5e302e312e303a206d696e7420746f20746865207a65726f206160008301527f64647265737300000000000000000000000000000000000000000000000000006020830152604082019050919050565b6000611342602a836117fb565b91507f546f6b6f696e5e302e312e303a207472616e7366657220746f20746865207a6560008301527f726f2061646472657373000000000000000000000000000000000000000000006020830152604082019050919050565b60006113a86030836117fb565b91507f546f6b6f696e5e302e312e303a2062616c616e636520717565727920666f722060008301527f746865207a65726f2061646472657373000000000000000000000000000000006020830152604082019050919050565b600061140e6030836117fb565b91507f546f6b6f696e5e302e312e303a207472616e73666572206f6620746f6b6f696e60008301527f2074686174206973206e6f74206f776e000000000000000000000000000000006020830152604082019050919050565b60006114746022836117fb565b91507f546f6b6f696e5e302e312e303a20746f6b656e20616c7265616479206d696e7460008301527f65640000000000000000000000000000000000000000000000000000000000006020830152604082019050919050565b60006114da6037836117fb565b91507f546f6b6f696e5e302e312e303a207472616e736665722063616c6c657220697360008301527f206e6f74206f776e6572206e6f7220617070726f7665640000000000000000006020830152604082019050919050565b6101008201600082015161154a60008501826115d5565b50602082015161155d60208501826115d5565b50604082015161157060408501826115d5565b50606082015161158360608501826115d5565b50608082015161159660808501826115d5565b5060a08201516115a960a085018261106b565b5060c08201516115bc60c085018261106b565b5060e08201516115cf60e08501826115d5565b50505050565b6115de8161184a565b82525050565b6115ed8161184a565b82525050565b6000602082019050611608600083018461107a565b92915050565b60006020820190506116236000830184611089565b92915050565b600060408201905081810360008301526116438185611098565b9050611652602083018461107a565b9392505050565b60006020820190508181036000830152611672816110d1565b9050919050565b6000602082019050818103600083015261169281611137565b9050919050565b600060208201905081810360008301526116b28161119d565b9050919050565b600060208201905081810360008301526116d281611203565b9050919050565b600060208201905081810360008301526116f281611269565b9050919050565b60006020820190508181036000830152611712816112cf565b9050919050565b6000602082019050818103600083015261173281611335565b9050919050565b600060208201905081810360008301526117528161139b565b9050919050565b6000602082019050818103600083015261177281611401565b9050919050565b6000602082019050818103600083015261179281611467565b9050919050565b600060208201905081810360008301526117b2816114cd565b9050919050565b6000610100820190506117cf6000830184611533565b92915050565b60006020820190506117ea60008301846115e4565b92915050565b600081519050919050565b600082825260208201905092915050565b60006118178261182a565b9050919050565b60008115159050919050565b600073ffffffffffffffffffffffffffffffffffffffff82169050919050565b6000819050919050565b60005b83811015611872578082015181840152602081019050611857565b83811115611881576000848401525b50505050565b6000601f19601f8301169050919050565b6118a18161180c565b81146118ac57600080fd5b50565b6118b88161184a565b81146118c357600080fd5b5056fe546f6b6f696e5e302e312e303a206465636f6e737472756374696f6e206f6620636f6e74726163742074686174206973206e6f74206f776e3a20a265627a7a723058204d35985681f43ee6f0dc43a5f7f36d245d95a33b5e7552925fb3a576fb4122636c6578706572696d656e74616cf50037",
  "source": "pragma solidity >=0.4.21 <0.6.0;\npragma experimental ABIEncoderV2;\n\ncontract Tokoin{\n\n  address contractOwner;\n\n  struct _Tokoin{\n    uint256 _itemId;\n    //string _homeAddress;\n    //string _phoneNumber;\n    uint _redeemTimes;\n    uint _currentTime;\n    uint _dateToDelivery;\n    uint _DeliveryTimeInterval;\n    address _client;\n    address _owner;\n    uint256 _tokenId;\n  }\n\n  event tokoin(\n    address indexed _owner,\n    uint256 _tokenId\n  );\n\n  event Transfer(\n    address indexed _from,\n    address indexed _to,\n    uint256 _tokenId\n  );\n\n  event Approval(\n    address indexed _owner,\n    address indexed _approved,\n    uint256 _tokenId\n  );\n\n  event tokoinRedeem(\n    address indexed _owner,\n    uint256 _tokenId\n  );\n\n  //Tokoin internal tokoin = Tokoin({_client: 1});\n  //Mapping from token ID to owner\n  mapping (uint256 => address) private _tokenOwner;\n\n  // Mapping from token ID to approved address\n  mapping (uint256 => address) private _tokenApprovals;\n\n  // Mapping from token ID to approved Tokoin\n  mapping (uint256 => _Tokoin) private _TokoinApprovals;\n  // Mapping from owner to number of owned token\n  mapping (address => uint256) private _ownedTokensCount;\n\n  // Mapping from owner to operator approvals\n  mapping (address => mapping (address => bool)) private _operatorApprovals;\n\n  //Constructor of constract\n  constructor() public {\n     contractOwner = msg.sender;\n  }\n\n  function get() public view returns (address retVal) {\n    return contractOwner;\n  }\n\n  // function _mint(address to, uint256 _itemId, uint _redeemTimes, uint _dateToDelivery,\n  //  uint _DeliveryTimeInterval, address _client, address _owner) public returns (_Tokoin _tokoin) {\n\n  //   uint256 tokenId = 1;\n  //   uint256 _itemId = _itemID;\n  //   _tokoin = _Tokoin(_itemId, _redeemTimes, now, _dateToDelivery, _DeliveryTimeInterval, _client, _owner, tokenId);\n  //   require(to != address(0), \"Tokoin^0.1.0: mint to the zero address\");\n  //   require(!_exists(tokenId), \"Tokoin^0.1.0: token already minted\");\n  //   _tokenOwner[tokenId] = to;\n  //   _ownedTokensCount[to] ++;\n  //   return _tokoin;\n  //   //emit Transfer(address(0), to, tokenId);\n  //   }\n  function _mint(address to, uint256 _itemId, uint _redeemTimes, uint _dateToDelivery,\n   uint _DeliveryTimeInterval, address _client, address _owner) public returns (_Tokoin memory) {\n\n    uint256 tokenId = 1;\n    _Tokoin memory _tokoin = _Tokoin(_itemId, _redeemTimes, now, _dateToDelivery, _DeliveryTimeInterval, _client, _owner, tokenId);\n    require(to != address(0), \"Tokoin^0.1.0: mint to the zero address\");\n    require(!_exists(tokenId), \"Tokoin^0.1.0: token already minted\");\n    _tokenOwner[tokenId] = to;\n    _ownedTokensCount[to] ++;\n    emit Transfer(address(0), to, tokenId);\n    return _tokoin;\n    }\n\n  //Get the amount of tokens owned by the specific address\n  function balanceOf(address _owner) public view returns (uint256) {\n    require(_owner != address(0), \"Tokoin^0.1.0: balance query for the zero address\");\n    return _ownedTokensCount[_owner];\n    }\n\n  //Get the owner of the specified token ID.\n  function ownerOf(uint256 _tokenId) public view returns (address) {\n    address _owner = _tokenOwner[_tokenId];\n    require(_owner != address(0), \"Tokoin^0.1.0: owner query for nonexistent token\");\n    return _owner;\n    }\n\n  /**\n   * @dev Tells whether an operator is approved by a given owner.\n   * @param owner owner address which you want to query the approval of\n   * @param operator operator address which you want to query the approval of\n   * @return bool whether the given operator is approved by the given owner\n   */\n  function isApprovedForAll(address owner, address operator) public view returns (bool) {\n    return _operatorApprovals[owner][operator];\n  }\n\n  //Approves another address to transfer the given token ID\n  function approve(address to, uint256 tokenId) public {\n    address owner = ownerOf(tokenId);\n    require(to != owner, \"Tokoin^0.1.0: approval to current owner\");\n    require(msg.sender == owner || isApprovedForAll(owner, msg.sender), \"Tokoin^0.1.0: approve caller is not owner nor approved for all\");\n    _tokenApprovals[tokenId] = to;\n    emit Approval(owner, to, tokenId);\n    }\n\n  /**\n   * @dev Returns whether the specified token exists.\n   * @param tokenId uint256 ID of the token to query the existence of\n   * @return bool whether the token exists\n   */\n  function _exists(uint256 tokenId) internal view returns (bool) {\n    address owner = _tokenOwner[tokenId];\n    return owner != address(0);\n    }\n\n  /**\n   * @dev Gets the approved address for a token ID, or zero if no address set\n   * Reverts if the token ID does not exist.\n   * @param tokenId uint256 ID of the token to query the approval of\n   * @return address currently approved for the given token ID\n   */\n  function getApproved(uint256 tokenId) public view returns (address) {\n    require(_exists(tokenId), \"Tokoin^0.1.0: approved query for nonexistent token\");\n    return _tokenApprovals[tokenId];\n  }\n\n  /**\n   * @dev Returns whether the given spender can transfer a given token ID.\n   * @param spender address of the spender to query\n   * @param tokenId uint256 ID of the token to be transferred\n   * @return bool whether the msg.sender is approved for the given token ID,\n   * is an operator of the owner, or is the owner of the token\n   */\n  function _isApprovedOrOwner(address spender, uint256 tokenId) internal view returns (bool) {\n    require(_exists(tokenId), \"Tokoin^0.1.0: operator query for nonexistent tokoin\");\n    address owner = ownerOf(tokenId);\n    return (spender == owner || getApproved(tokenId) == spender || isApprovedForAll(owner, spender));\n    }\n\n  /**\n   * @dev Private function to clear current approval of a given token ID.\n   * @param tokenId uint256 ID of the token to be transferred\n   */\n  function _clearApproval(uint256 tokenId) private {\n    if (_tokenApprovals[tokenId] != address(0)) {\n      _tokenApprovals[tokenId] = address(0);\n      }\n  }\n\n  function _transferFrom(address from, address to, uint256 tokenId) internal {\n    require(ownerOf(tokenId) == from, \"Tokoin^0.1.0: transfer of tokoin that is not own\");\n    require(to != address(0), \"Tokoin^0.1.0: transfer to the zero address\");\n\n    _clearApproval(tokenId);\n\n    _ownedTokensCount[from] --;\n    _ownedTokensCount[to] ++;\n\n    _tokenOwner[tokenId] = to;\n\n    emit Transfer(from, to, tokenId);\n    }\n  /**\n   * @dev Transfers the ownership of a given token ID to another address.\n   * Usage of this method is discouraged, use `safeTransferFrom` whenever possible.\n   * Requires the msg.sender to be the owner, approved, or operator.\n   * @param from current owner of the token\n   * @param to address to receive the ownership of the given token ID\n   * @param tokenId uint256 ID of the token to be transferred\n   */\n  function transferFrom(address from, address to, uint256 tokenId) public {\n    //solhint-disable-next-line max-line-length\n    require(_isApprovedOrOwner(msg.sender, tokenId), \"Tokoin^0.1.0: transfer caller is not owner nor approved\");\n    _transferFrom(from, to, tokenId);\n    }\n\n  /**\n   * _redeemCheckCondition\n   * Get the time (location), check if it is reasonable\n   */\n  function _redeemCheckCondition(_Tokoin memory _tokoin) internal view returns (bool){\n      uint DeliveryTimeInterval = _tokoin._DeliveryTimeInterval;\n      uint currentTime = _tokoin._currentTime;\n      return (now >= (currentTime + DeliveryTimeInterval) || now <= (currentTime + DeliveryTimeInterval + 10 minutes));\n  }\n\n  /**\n   * _redeemCheckTrail\n   * Check the full trail of tokoin transfer is legal\n   * This is related to ABE\n   */\n\n\n  /**\n   * _redeemVerification\n   * Verify the owner of tokoin\n   */\n  function _redeemVerification(address from, uint256 tokenId) internal view returns (bool) {\n    if (ownerOf(tokenId) == from){\n      return true;\n    }\n  }\n\n  /**\n   * _tokoinRedeem includes _redeemCheckCondition, _redeemCheckTrail, _redeemVerification\n   *\n   */\n  function _tokoinRedeem(_Tokoin memory _tokoin, address from, address to, uint256 tokenId) internal returns (bool) {\n    require(ownerOf(tokenId) == from, \"Tokoin^0.1.0: redeem of tokoin that is not own\");\n    if( _redeemCheckCondition(_tokoin) == true || _redeemVerification(from, tokenId) == true){\n        _transferFrom(from, to, tokenId);\n        return true;\n    }\n    emit tokoinRedeem(from, tokenId);\n  }\n\n//   modifier ownerRestricted {\n//       require(owner == msg.sender);\n//       _;\n//   }\n\n  /**\n  * Destroy contract\n  */\n  function destroyContract() public {\n     if (contractOwner == msg.sender){\n         selfdestruct(msg.sender);\n     } else {\n         log(\"Tokoin^0.1.0: deconstruction of contract that is not own: \", msg.sender);\n     }\n  }\n\n  /**\n   * log for error message\n   */\n  event LogAddress(string, address);\n  function log(string memory s, address x) internal {\n      emit LogAddress(s, x);\n  }\n\n}\n",
  "sourcePath": "/Users/minghuixu/workspace/TokoinProject/contracts/Tokoin.sol",
  "compiler": {
    "name": "solc",
    "version": "0.5.8+commit.23d335f2.Emscripten.clang"
  },
  "schemaVersion": "3.0.11",
  "updatedAt": "2019-06-26T10:43:07.162Z",
  "devdoc": {
    "methods": {
      "getApproved(uint256)": {
        "details": "Gets the approved address for a token ID, or zero if no address set Reverts if the token ID does not exist.",
        "params": {
          "tokenId": "uint256 ID of the token to query the approval of"
        },
        "return": "address currently approved for the given token ID"
      },
      "isApprovedForAll(address,address)": {
        "details": "Tells whether an operator is approved by a given owner.",
        "params": {
          "operator": "operator address which you want to query the approval of",
          "owner": "owner address which you want to query the approval of"
        },
        "return": "bool whether the given operator is approved by the given owner"
      },
      "transferFrom(address,address,uint256)": {
        "details": "Transfers the ownership of a given token ID to another address. Usage of this method is discouraged, use `safeTransferFrom` whenever possible. Requires the msg.sender to be the owner, approved, or operator.",
        "params": {
          "from": "current owner of the token",
          "to": "address to receive the ownership of the given token ID",
          "tokenId": "uint256 ID of the token to be transferred"
        }
      }
    }
  },
  "userdoc": {
    "methods": {
      "destroyContract()": {
        "notice": "Destroy contract"
      }
    }
  }
}